:020000040800F2
:100000000085002049010008991400084D0B0008E4
:10001000951400088B070008711A00080000000002
:100020000000000000000000000000006116000851
:100030008F0700080000000049150008A9170008F4
:100040006301000863010008630100086301000800
:1000500063010008630100086301000863010008F0
:1000600063010008630100086301000863010008E0
:1000700063010008630100086301000863010008D0
:1000800063010008630100086301000863010008C0
:1000900063010008630100086301000863010008B0
:1000A00063010008630100086301000863010008A0
:1000B0006301000863010008630100086301000890
:1000C0006301000863010008630100086301000880
:1000D0006301000863010008630100086301000870
:1000E000910700086301000863010008630100082C
:1000F0006301000863010008630100086301000850
:10010000630100086301000863010008630100083F
:10011000630100086301000863010008630100082F
:10012000630100086301000863010008630100081F
:10013000DFF810D000F0ECFA00480047A9240008CE
:10014000AFF300800085002006488047064800473E
:10015000FEE7FEE7FEE7FEE7FEE7FEE7FEE7FEE777
:10016000FEE7FEE75518000831010008202A06DBEB
:10017000CB17203A41FA02F043EAE07306E041FA75
:1001800002F3D040C2F12002914008431946704763
:100190000649074A0868504343F239021044086090
:1001A0004008704701490860704700003002002095
:1001B0006D4EC64110B5431A934209D28318881870
:1001C00003E010F8011D03F8011D521EF9D210BD05
:1001D00040EA01039B0703D009E008C9121F08C0C9
:1001E000042AFAD203E011F8013B00F8013B521E49
:1001F000F9D210BDD2B201E000F8012B491EFBD2AA
:1002000070470022F6E710B513460A460446194621
:10021000FFF7F0FF204610BD2DE9FE4F804681EA32
:100220000300C00F0C46009021F0004123F0004570
:10023000B8EB0200A94105D24046214690461C4633
:100240000B46024623F00040104347D0270DC7F36A
:100250000A00C3F30A510290401A019040286BDA59
:10026000C3F3130040F4801B0098924620B1002392
:10027000D2EB030A63EB0B0B01985946C0F1400225
:10028000504600F0B0F906460D4650465946019AD0
:10029000FFF76CFF10EB08006141002487EA115260
:1002A00084EAE7731A4340D0009A62B3019A012AA4
:1002B0004FEA075215DC001B61EB02014FF00042D0
:1002C00002EA0752CDE90042001C41F58011324696
:1002D0002B4600F0B6F903B0BDE8F08F404621464A
:1002E000F9E7001B61EB0201001C41F580130018C7
:1002F0005B412018A2F5001747EB030140EAD570D7
:10030000B6196D4111E06D084FEA360645EAC07531
:100310004FEA0752001B61EB0201001C41F58011FE
:1003200049084FEA30000019514132462B4603B0CC
:10033000BDE8F04F00F076B900980122400000239C
:10034000D0EB020263EBE073009821464FEAE074C1
:10035000B8EB000061EB0401E9E783F000435BE7E1
:1003600081F0004158E72DE9FE4F81EA030404F0D3
:10037000004421F0004100944FF0000B23F00043B3
:1003800050EA01045ED052EA03045BD0C3F30A547E
:10039000C1F30A552C44A4F2F3340194A0FB025497
:1003A000C1F3130141F48011C3F3130343F4801329
:1003B00001FB024400FB034E840A970A44EA81547D
:1003C00047EA8357A4FB076802958D0A05FB07855A
:1003D0004FEA932C04FB0C542705029D4FEA065864
:1003E00047EA1637B5EB08056EEB070C870E920E41
:1003F00047EA811742EA8312A7FB0201B6EB0B0121
:1004000064EB00042B0D43EA0C335E1844EB1C50E4
:10041000DA465146E7FB0201C5F313044FEA0B33FA
:1004200043EA14534FEA0432019C43EA0603A4F161
:100430000C040294009CCDE900B400F002F903B072
:10044000BDE8F08F00200146F9E72DE9F04D81EA83
:10045000030404F0004B21F0004514464FF0000A5D
:1004600023F0004150EA050220D054EA01021DD0D9
:10047000C5F30A570246C5F31303C1F31300C1F3D2
:100480000A5640F4801543F48013A7EB0608101BAE
:10049000D64608F2FD3873EB050002D308F10108D7
:1004A00001E092185B41B8F1000F03DA0020014629
:1004B000BDE8F08D00204FF48011064684460EE022
:1004C000171B73EB050705D3121B63EB05030643EC
:1004D0004CEA010C49084FEA300092185B4150EA9F
:1004E0000107EDD152EA030012D082EA040083EA48
:1004F0000501084305D0101BAB4106D201220023A1
:1005000006E000224FF0004302E06FF001025310BA
:100510001AEB06004CEB085110EB0A0041EB0B0103
:10052000BDE8F04D00F07EB830B5041E71F1000456
:1005300004DB4FF00044404264EB0101141E73F1F0
:10054000000405DB1C464FF00043524263EB0403FA
:10055000994208BF904230BD30B50B46014600209D
:100560002022012409E021FA02F59D4205D303FA75
:1005700002F5491B04FA02F52844151EA2F10102F6
:10058000F1DC30BD2DE9F05F0546002092469B4628
:1005900088460646814640241BE028464146474699
:1005A000224600F02FF853465A46C01A914110D304
:1005B00011461846224600F016F82D1A67EB01087E
:1005C0004F4622460120002100F00DF817EB0009EC
:1005D0004E41201EA4F10104DFDC484631462A4684
:1005E0004346BDE8F09F202A04DB203A00FA02F1DE
:1005F000002070479140C2F1200320FA03F3194311
:1006000090407047202A04DB203A21FA02F00021B2
:10061000704721FA02F3D040C2F120029140084312
:100620001946704710B5141E73F1000408DA401C17
:1006300041F1000192185B411A4301D120F0010001
:1006400010BD2DE9F04D92469B4611B1B1FA81F2F1
:1006500002E0B0FA80F220329046FFF7C4FF044671
:100660000F4640EA0A0041EA0B0153465A46084346
:1006700013D0114653EA010019D0C8F14002504688
:10068000FFF7C0FF05460E46504659464246FFF763
:10069000AAFF084305D0012004E020463946BDE802
:1006A000F08D0020054346EAE0762C4337430A9854
:1006B0006305E40AA0EB08000022FD0A44EA47545F
:1006C0000A3002D500200146E9E701051019694109
:1006D000DDE9084500196941BDE8F04DA2E7C1F325
:1006E0000A52C1F3130140F2FF3341F480119A42E0
:1006F00002DA00200146704740F233439A42A2F2E8
:10070000334202DC5242FFF77DBFFFF76CBF0000AF
:10071000064C074D06E0E06840F0010394E807004E
:1007200098471034AC42F6D3FFF706FD3465000855
:100730005465000870B58C1810F8015B15F00703BC
:1007400001D110F8013B2A1106D110F8012B03E06A
:1007500010F8016B01F8016B5B1EF9D12B0705D472
:100760000023521E0DD401F8013BFAE710F8013BBB
:10077000CB1A921C03E013F8015B01F8015B521ED7
:10078000F9D5A142D8D3002070BD00BFFEE7704765
:1007900010B54FF4006000F00DF818B14FF4006090
:1007A00000F002F810BD0000014908607047000029
:1007B00014040140014600200022074B1B6803EA95
:1007C0000102054B14331B680B4013B10AB1012021
:1007D00000E0002070470000000401400021234990
:1007E0008279002A3AD00A46126803689A430B4677
:1007F0001A600A1D126803689A430B1D1A60027979
:1008000011440A6803681A430A60184A08321268D9
:1008100003689A43154B08331A601A1D126803685F
:100820009A43124B0C331A604279102A0ED11A1FC8
:10083000126803681A430D4B08331A601A1D1268B8
:1008400003681A43094B0C331A600DE007494279DB
:1008500011440A6803681A430A6005E002791144EA
:100860000A6803689A430A60704700000004014068
:100870000EB50121042000F079FE00F00EFE4FF4C9
:100880000060ADF8080004208DF80B0002A90B48A9
:1008900000F0C4F80B21002000F0A0F84FF4006035
:1008A000009000208DF8040008208DF8050001203C
:1008B0008DF806006846FFF791FF0EBD0008014065
:1008C00051B18200A2F1C042126842F001038200DD
:1008D000A2F1C042136009E08200A2F1C042126896
:1008E000034B1A408300A3F1C0431A607047000015
:1008F000FEFF0F00D0E901121143C26811430269E3
:1009000011434269114382691143C2691143026A6A
:100910001143426A1143826A1143C26A1143026B56
:10092000114302689200A2F1C04211608168082957
:100930000BD101688900A1F1C041096841F0400272
:1009400001688900A1F1C0410A60416B0968426BEE
:10095000526841EA0211426B926841EA0221426BFD
:10096000928941EA0241426B128A41EA0251426B8A
:10097000127D41EA0261426B926911430268521C86
:100980009200A2F1C0421160C16AB1F5804F1BD143
:10099000816B0968826B526841EA0211826B92682E
:1009A00041EA0221826B128A41EA0251826B127D76
:1009B00041EA0261826B9269114302689200A2F1DE
:1009C000C042C2F8041107E06FF07042016889006C
:1009D000A1F1C041C1F804217047000030B50022E8
:1009E0008B071C0F0F2303FA04F20B4B8C1053F8E8
:1009F00024309343084C8D1044F8253023468C1046
:100A000053F824308C07240F00FA04F42343024CDB
:100A10008D1044F8253030BD080001402DE9F0412B
:100A2000024600250026002000230024002791F81C
:100A300003C00CF00F0591F803C00CF0100CBCF1D2
:100A4000000F03D091F802C04CEA050591F800C0F0
:100A5000BCF1000F31D0146800202BE04FF0010CE6
:100A60000CFA00F3B1F800C00CEA03069E4220D154
:100A700083004FF00F0C0CFA03F7BC4305FA03FC9C
:100A80004CEA040491F803C0BCF1280F06D14FF0E2
:100A9000010C0CFA00FCC2F814C00AE091F803C083
:100AA000BCF1480F05D14FF0010C0CFA00FCC2F864
:100AB00010C0401C0828D1D31460B1F800C0BCF1AC
:100AC000FF0F34DD546800202EE000F1080C4FF0D9
:100AD000010808FA0CF3B1F800C00CEA03069E42C4
:100AE00021D183004FF00F0C0CFA03F7BC4305FA39
:100AF00003FC4CEA040491F803C0BCF1280F05D1B3
:100B000000F1080C08FA0CF8C2F8148091F803C040
:100B1000BCF1480F07D100F1080C4FF0010808FAAA
:100B20000CF8C2F81080401C0828CED35460BDE8F1
:100B3000F0810246002093680B400BB1012000E0D9
:100B400000207047416170470161704700BFFEE7B8
:100B500010B5052000F0FAFD00BF00BF00F0FCFD5D
:100B600010BD000010B504462CB14FF4805105486B
:100B7000FFF7E8FF04E04FF480510248FFF7E4FF7D
:100B800010BD0000001401402DE9F04106460F465B
:100B900014461D462B4622463946304600F058FA88
:100BA00004FB05F00249098800F0F9F8BDE8F0817E
:100BB000DE01002001B502E00098401E0090009880
:100BC0000028F9D108BD2DE9F05F05460E46914693
:100BD0009B4600240FFA89F70320A0EB49000FFA87
:100BE00080FA87E0BBF1000F40D0A0463BE006EB67
:100BF000080291B22A1990B200F0B2FB06EB08028B
:100C000091B22A1B90B200F0ABFB321991B2A5EB66
:100C1000080290B200F0A4FB321B91B2A5EB0802CF
:100C200090B200F09DFBA6EB080291B22A1B90B295
:100C300000F096FBA6EB080291B22A1990B200F0E0
:100C40008FFB321B91B205EB080290B200F088FBDB
:100C5000321991B205EB080290B200F081FB08F165
:100C600001000FFA80F8B845C1DD2FE0F21991B20A
:100C70002A1990B200F074FBF21991B22A1B90B2BB
:100C800000F06EFB321991B2EA1B90B200F068FBE3
:100C9000321B91B2EA1B90B200F062FBF21B91B2E0
:100CA0002A1B90B200F05CFBF21B91B22A1990B2A1
:100CB00000F056FB321B91B2EA1990B200F050FBE3
:100CC000321991B2EA1990B200F04AFB601C04B2EA
:100CD000BAF1000F05DAA000801D50440FFA80FA27
:100CE00007E0E01B80000A3050440FFA80FA781EBB
:100CF00007B200BFBC427FF775AFBDE8F09F2DE99A
:100D0000F04706460F4614461D46DDE9099ADDF810
:100D100020802B4622463946304600F099F94FEAAA
:100D2000C862120C09F03F0342EA43120AF01F03A3
:100D300042EA030104FB05F000F031F8BDE8F0875A
:100D400000B597B00121080200F000FC01200190DD
:100D500004200390800607900020029004900590E4
:100D600006900890099008200A9010200B9000200F
:100D70000C900E900F9010904FF480501190002026
:100D800012901390149001A81590169008A8FFF7E0
:100D9000B1FD01210020FFF793FD17B000BD70B534
:100DA00004460D4600262C2000F0F6FA00BF03E0B2
:100DB000284600F0F5FA761CA642F9D370BD000073
:100DC00008B50121602000F0D1FB03208DF802005E
:100DD00018208DF803004FF48040ADF800006946FC
:100DE0005B48FFF71BFE4FF40040ADF8000069467A
:100DF0005748FFF713FE0120ADF80000694654483C
:100E0000FFF70CFE0220ADF8000069465048FFF7DE
:100E100005FE8020ADF8000069464E48FFF7FEFD54
:100E20004FF48070ADF8000069464A48FFF7F6FDC0
:100E30004FF40070ADF8000069464648FFF7EEFD3C
:100E40004FF48060ADF8000069464248FFF7E6FDC8
:100E50004FF40060ADF8000069463E48FFF7DEFD44
:100E60004FF48050ADF8000069463A48FFF7D6FDD0
:100E70004FF40050ADF8000069463648FFF7CEFD4C
:100E80004FF48040ADF8000069463248FFF7C6FDD8
:100E90004FF40040ADF8000069462E48FFF7BEFD54
:100EA0004FF48070ADF8000069462948FFF7B6FDA1
:100EB0004FF40070ADF8000069462548FFF7AEFD1D
:100EC0004FF48060ADF8000069462148FFF7A6FDA9
:100ED00003208DF8020018208DF803001020ADF8D3
:100EE000000069461A48FFF799FD2020ADF8000080
:100EF00069461748FFF792FD8020ADF8000069466B
:100F00001348FFF78BFD4FF40060ADF80000694611
:100F10000F48FFF783FD10208DF8030003208DF8A4
:100F200002000220ADF8000069460A48FFF776FD8E
:100F300010208DF8030003208DF802004FF480503C
:100F4000ADF8000069460248FFF768FD08BD0000E3
:100F5000001401400018014070B504460D462946B2
:100F6000204600F0F3F900F0C1F90646304670BDA6
:100F700010B50446072C00DD10BD2848047020463B
:100F800004EBD0714910A4EB410139B9F020244998
:100F900008804FF4A0702349088006E04FF4A07049
:100FA0001F490880F0201F490880362000F0F4F91E
:100FB000082141EA441000F0F3F92A2000F0ECF98E
:100FC000002000F0EDF9002000F0EAF9144909884A
:100FD000491EC1F3072000F0E3F911490978491EC1
:100FE000C8B200F0DDF92B2000F0D6F9002000F0A7
:100FF000D7F9002000F0D4F90A490988491EC1F345
:10100000072000F0CDF907490978491EC8B200F061
:10101000C7F92C2000F0C0F900BFADE7D4010020D3
:10102000D0010020D201002010B5FFF7C9FEFFF764
:1010300087FE0120FFF796FD00F074F900F038F804
:1010400002480078FFF794FF10BD0000D401002093
:101050002DE9F04104460D4616461F462A2000F0B1
:101060009BF9201200F09CF9E0B200F099F9A11967
:10107000491EC1F30F2000F093F9A119491EC8B20F
:1010800000F08EF92B2000F087F9281200F088F983
:10109000E8B200F085F9E919491EC1F30F2000F00C
:1010A0007FF9E919491EC8B200F07AF9BDE8F0816C
:1010B00010B5CF2000F070F9002000F071F9812008
:1010C00000F06EF9302000F06BF9ED2000F064F9CB
:1010D000642000F065F9032000F062F9122000F0AE
:1010E0005FF9812000F05CF9E82000F055F98520D7
:1010F00000F056F9102000F053F9782000F050F974
:10110000CB2000F049F9392000F04AF92C2000F0FA
:1011100047F9002000F044F9342000F041F90220A2
:1011200000F03EF9F72000F037F9202000F038F900
:10113000EA2000F031F9002000F032F9002000F040
:101140002FF9B12000F028F9002000F029F91B2028
:1011500000F026F9B62000F01FF90A2000F020F96F
:10116000A22000F01DF9C02000F016F9352000F093
:1011700017F9C12000F010F9112000F011F9C52075
:1011800000F00AF9452000F00BF9452000F008F9BD
:10119000C72000F001F9A22000F002F9F22000F0CF
:1011A000FBF8002000F0FCF8262000F0F5F8012004
:1011B00000F0F6F8E02000F0EFF80F2000F0F0F873
:1011C000262000F0EDF8242000F0EAF80B2000F0D3
:1011D000E7F80E2000F0E4F8092000F0E1F85420D0
:1011E00000F0DEF8A82000F0DBF8462000F0D8F888
:1011F0000C2000F0D5F8172000F0D2F8092000F0FC
:10120000CFF80F2000F0CCF8072000F0C9F800203C
:1012100000F0C6F8E12000F0BFF8002000F0C0F8B0
:10122000192000F0BDF81B2000F0BAF8042000F0EF
:10123000B7F8102000F0B4F8072000F0B1F82A2029
:1012400000F0AEF8472000F0ABF8392000F0A8F825
:10125000032000F0A5F8062000F0A2F8062000F018
:101260009FF8302000F09CF8382000F099F80F200B
:1012700000F096F8362000F08FF8C82000F090F8C3
:101280002A2000F089F8002000F08AF8002000F001
:1012900087F8002000F084F8EF2000F081F82B2080
:1012A00000F07AF8002000F07BF8002000F078F8D9
:1012B000012000F075F83F2000F072F83A2000F0AD
:1012C0006BF8552000F06CF8112000F065F8034829
:1012D000FFF770FC292000F05FF810BDFCBF020092
:1012E00001480088704700000000026070B50024CB
:1012F000002500262E2000F04FF8FFF7F1FF0446EE
:10130000FFF7EEFF0446FFF7EBFF0646FFF7E8FFA7
:101310000546E012C002A91240EA411040EAE62068
:1013200070BD000010B502210748FFF70BFC40F626
:10133000FF20FFF73FFC02210348FFF705FC40F6C2
:10134000FF20FFF737FC10BD0018014070B50446C0
:101350000D4601231A4629462046FFF779FE70BD47
:1013600070B505460C460948008885420CDA0848E5
:101370000088844208DA21462846FFF7E7FF05483F
:1013800001880120FFF70BFD70BD0000D001002097
:10139000D2010020DC0100204FF0C04108807047DE
:1013A00001490880704700000000026008B5012173
:1013B000142000F0DBF80120ADF8000004208DF8C7
:1013C000030069460748FFF729FB4FF40050ADF8CA
:1013D000000004208DF8030069460348FFF71EFB58
:1013E00008BD0000000801400010014070B504462F
:1013F0000D4629462046FFF79CFB012808D100BF77
:1014000029462046FFF795FB0128F9D0012070BD41
:101410000020FCE7024A1080024A11807047000059
:10142000DC010020DE010020014908607047000057
:10143000D801002008B50121082000F097F82020ED
:10144000ADF8000010208DF8030003208DF8020095
:1014500069460F48FFF7E2FA0120ADF8000069463F
:101460000B48FFF7DBFA0220ADF800006946084898
:10147000FFF7D4FA20210648FFF766FB0121044854
:10148000FFF762FB02210248FFF75EFB08BD000088
:10149000000C014000BFFEE7704708B54FF4C06084
:1014A00000F048F828208DF8000000208DF8010099
:1014B0008DF8020001208DF80300684600F002F864
:1014C00008BD000070B5002100230F22C47804B3CA
:1014D000154C246804F4E064C4F5E064210AC1F109
:1014E0000403CA40447804FA03F184781440214389
:1014F00009010E4C0678A155047804F01F0501245B
:10150000AC4005786D11AD0005F1E025C5F800414E
:1015100009E0047804F01F050124AC40044D06786E
:10152000761145F8264070BD0CED00E000E400E0C7
:1015300080E100E002490143024A11607047000067
:101540000000FA050CED00E07047000029B1064AE2
:1015500052690243044B5A6104E0034A52698243D0
:10156000014B5A61704700000010024029B1064A41
:1015700092690243044B9A6104E0034A92698243F0
:10158000014B9A61704700000010024030B5002105
:101590000022002400232D4D6D6805F00C0121B1BF
:1015A000042905D0082923D105E0294D056022E052
:1015B000274D05601FE0254D6D6805F47012234D21
:1015C0006D6805F48034022505EB92421CB9214D6B
:1015D000554305600BE01D4D6D6805F400351DB1E8
:1015E0001C4D5543056002E0194D5543056002E06E
:1015F000174D056000BF00BF144D6D6805F0F00188
:101600000909154D6B5C0568DD4045600F4D6D683F
:1016100005F4E061090A104D6B5C4568DD408560AA
:101620000A4D6D6805F46051C90A0B4D6B5C456845
:10163000DD40C560054D6D6805F44041890B074DDF
:101640006B5CC568B5FBF3F5056130BD0010024069
:1016500000127A0000093D00060200201602002058
:10166000704710B500F002F810BD00000CB5002066
:10167000019000903348006840F4803031490860A0
:1016800000BF3048006800F4003000900198401C12
:101690000190009818B90198B0F5A06FF1D12948D0
:1016A000006800F4003010B10120009001E000203B
:1016B00000900098012843D12348006840F01000B2
:1016C000214908600846006820F0030008600846C9
:1016D000006840F0020008601A48406819494860F4
:1016E0000846406848600846406840F480604860AA
:1016F0000846406820F47C1048600846406840F482
:10170000E81048600846006840F08070086000BF3C
:101710000C48006800F000700028F9D009484068C3
:1017200020F00300074948600846406840F0020086
:10173000486000BF0348406800F00C000828F9D159
:101740000CBD00000010024000200240014908804A
:10175000704700000402002008B501210820FFF7AF
:1017600005FFC020ADF8000002208DF80200142013
:101770008DF8030069460748FFF750F940210548F6
:10178000FFF7E2F980210348FFF7DEF9024800F095
:1017900005F808BD000C0140A086010000BF411EF5
:1017A000081EFCD17047000010B500F08BF800F067
:1017B00081F800240CE0084850F8240030B10648B5
:1017C00050F82400401E044941F82400601CC4B2B3
:1017D000022CF0DB10BD0000C801002030B51A4813
:1017E00000684FF47A72B0FBF2F1B1F1807F01D35F
:1017F00001201DE021F07F40401E4FF0E0225061AB
:1018000050170F22002807DA13071D0E0F4B00F0A8
:101810000F04241F1D5503E013071C0E0C4B1C5412
:1018200000BF00204FF0E0229061072010610020EF
:1018300008B100BFFEE74FF0E020006920F0010092
:101840004FF0E021086130BD1C02002018ED00E0DF
:1018500000E400E010B51348006840F001001149B1
:10186000086008464068104908400E49486008462C
:1018700000680E4908400B4908600846006820F4DB
:10188000802008600846406820F4FE0048604FF45D
:101890001F008860FFF7E5FE4FF000600449086014
:1018A00010BD0000001002400000FFF8FFFFF6FE30
:1018B00008ED00E002480068401C014908607047DC
:1018C000E00100200448006820B103480068401E81
:1018D0000149086070470000E401002021B18289BD
:1018E00042F40052828104E082894DF6FF731A406F
:1018F0008281704700B585B001210420FFF736FED4
:1019000001218803FFF732FE4FF40070ADF810009C
:1019100018208DF8130003208DF8120004A9134835
:10192000FFF77CF84FF48060ADF8100004208DF8CC
:10193000130004A90D48FFF771F84FF4E13000904F
:101940000020ADF80400ADF80600ADF80800ADF8D1
:101950000C000C20ADF80A006946054800F018F8A4
:1019600001210348FFF7BAFF05B000BD00080140A0
:101970000038014002460020B1F5007F00D100BFD1
:1019800013880B400BB1012000E0002070470000DD
:101990002DE9F04786B005460E460024A24600BF5A
:1019A000A1460027B08900B100BF2F462C8A4CF613
:1019B000FF700440F08804432C82AC894EF6F3108B
:1019C0000440B08831890843718908430443AC81DD
:1019D000AC8A4FF6FF400440B0890443AC8201A8B2
:1019E000FFF7D4FD1F48874202D1DDF810A001E0C7
:1019F000DDF80CA0A88900F4004040B10AEBCA0051
:101A000000EB0A1031684900B0FBF1F807E00AEB7F
:101A1000CA0000EB0A1031688900B0FBF1F86420BD
:101A2000B8FBF0F004012009642101FB1089A889AA
:101A300000F4004040B1322000EBC900B0FBF1F0EF
:101A400000F00700044308E0322000EB0910642195
:101A5000B0FBF1F000F00F0004432C8106B0BDE8AC
:101A6000F087000000380140C1F30802828070470F
:101A700000BFFEE70FB4054B10B503A9044A029856
:101A800000F0DAF810BC5DF814FB00005D240008DB
:101A90003402002002E008C8121F08C1002AFAD14F
:101AA00070477047002001E001C1121F002AFBD1DE
:101AB000704700002DE9FF5F82B00021DDE90430AE
:101AC000020DDDF840B0034318D044F61050A2F2E6
:101AD000FF3242431514119801281FD0A5EB0B00CB
:101AE000401C5FEA000A4FF000064E4FDFF83891C5
:101AF000B046504615D5CAF1000413E011980124F0
:101B00004AA3012801D16FEA0B010298119AC0E99A
:101B10000031C0E9024206B0BDE8F09FCBF1000001
:101B2000DFE704460021404A491842EB0450CDE962
:101B3000001012E0E00707D032463B4640464946D7
:101B4000FEF711FC8046894632463B461046194650
:101B5000FEF709FC06460F466410002CEAD1DDE9C9
:101B60000401DDE90023BAF1000F06DAFEF7FBFB02
:101B700042464B46FEF7F7FB05E0FEF766FC4246A1
:101B80004B46FEF762FC04460E460022284BFEF749
:101B9000CBFC03D84FF0FF30014607E00022254B75
:101BA00020463146FEF738FBFEF799FD102409E088
:101BB000002C0ADB0A220023FEF7E4FC039B3032F0
:101BC0001A55641E50EA0102F2D1641C039AC4F152
:101BD00011031444119A012A03D0012208430DD1A4
:101BE0000AE0084304D000204FF0110B119072E777
:101BF000A3EB0B056D1E0DE05B4504DD4FF000020D
:101C000005F1010504E003DA4FF00002A5F101053A
:101C1000002AECD002981199C0E90231C0E90045D0
:101C200079E70000000014400000F03F30000000A1
:101C30000000F0430000E03F2DE9FF4F95B09A46C9
:101C4000884606460025EEE1252877D10024274660
:101C5000F94A0121039400E0044316F8013F203BB8
:101C600001FA03F01042F7D130782A2811D06FF032
:101C70002F033078A0F13002092A16D8039A44F0D5
:101C8000020402EB820203EB42021044761C039032
:101C9000EFE758F8042B0392002A03DA504244F489
:101CA0000054039044F00204761C30782E2816D19C
:101CB00016F8010F44F004042A280DD06FF02F020B
:101CC0003078A0F13003092B09D807EB870302EB2A
:101CD0004303C718761CF3E758F8047B761C30786A
:101CE0006C280FD006DC4C2817D068280DD06A2845
:101CF00014D104E0742810D07A280FD10DE044F4F8
:101D000000140AE044F4801401E044F440147278B2
:101D1000824202D104F58014761C761C3078662845
:101D20000BD013DC582877D009DC002875D0452863
:101D3000F6D04628F4D047281AD193E118E063285A
:101D400035D0642879D0652812D18BE1702873D002
:101D500008DC6728F1D069286FD06E280DD06F2875
:101D600006D1ACE073282CD0752874D0782853D0D5
:101D70005246179990476D1C54E1C4F30250022853
:101D800009D003280DD0D8F8001004280DD00D601C
:101D900008F1040846E1D8F80010EA17C1E900523A
:101DA000F6E7D8F800100D80F2E70D70F0E718F8AC
:101DB000041B8DF8001000208DF80100EB46012077
:101DC00003E058F804BB4FF0FF3061074FF000010B
:101DD00002D40DE009F101018946B9420FDA8145CB
:101DE000F8DB1BF809100029F4D108E009F1010122
:101DF00089468142FADB1BF809100029F6D10398C5
:101E00005346A0EB090721463846179A00F080FA9E
:101E1000284400EB090507E044E008E10DE01BF869
:101E2000010B524617999047B9F10109F7D2534671
:101E300021463846179AF2E039E00A21C4F30252EB
:101E40004FF0000B0091022A06D058F8040BC1177E
:101E5000032A09D00AE023E008F1070020F0070276
:101E6000F2E80201904605E000B2C117042A01D150
:101E700040B2C117002906DA0A460021404261EB50
:101E800002012D2202E0220504D52B228DF8042028
:101E9000012203E0E20701D02022F7E7914657E054
:101EA0000A2100E010214FF0000B00910BE01021FF
:101EB0004FF0000B44F004040827009103E00820D1
:101EC0004FF0000B0090C4F30252022A05D058F8DC
:101ED000040B0021032A08D008E008F1070020F0D5
:101EE0000702F2E80201904603E080B2042A00D122
:101EF000C0B24FF0000922072AD53278702A07D0E5
:101F0000DDF800C08CF0100C5CEA0B0C05D00EE084
:101F100040228DF80420012208E050EA010306D097
:101F200030238DF804308DF8052002229146009B65
:101F300083F0080353EA0B030AD150EA010201D1EE
:101F4000620705D530228DF804204FF001097F1E6D
:101F50003278582A04D039A20C920CAA02920BE0D3
:101F60003BA2F9E75B46009AFEF70CFB0C9B9B5CDF
:101F7000029A521E0292137050EA0102F2D10298A4
:101F800004A9081A00F1200B600702D524F480345C
:101F900000E001275F4502DDA7EB0B0000E0002019
:101FA00000EB0B01009003984944401A0390E003B2
:101FB00006D453462146179A039800F0A9F9054420
:101FC000002706E001A85246C05D179990476D1C96
:101FD0007F1C4F45F6DBE0030CD553462146179A8C
:101FE000039800F095F9054404E030205246179913
:101FF00090476D1C0099481E00900029F5DC08E010
:102000000298029952460078491C0291179990470C
:102010006D1CBBF10001ABF1010BF1DC5BE100F0E9
:1020200065F90544761C307800287FF40DAE19B0B0
:102030002846BDE8F08F0000092801003031323316
:1020400034353637383961626364656600000000F4
:1020500030313233343536373839414243444546DE
:1020600000000000600700D4062708F1070020F0F8
:102070000700F0E80223804603F0004C5FEA0C0002
:1020800001D097A009E0200501D596A005E0E00762
:1020900001D095A001E0AFF24C001390307823F00E
:1020A000004365280CD006DC452809D046281DD001
:1020B00047287FD13BE0662818D067287AD136E0E0
:1020C0000021112F01DB112000E0781CCDE9000177
:1020D00004A90CA8FFF7EEFCDDE90D010C9A4FF006
:1020E000000B07F10109109200914EE04FF0004003
:1020F0000097CDE9011004A90CA8FFF7DBFCDDE98E
:102100000D020C9B0F994FF0000B9146109300921B
:1021100011B9791C00EB0109B7EB090003D4C0F138
:10212000FF3B07F10109A9EB0700019042E0012FF5
:1021300000DA01270021112F01DD112000E03846CF
:10214000CDE9000104A90CA8FFF7B4FCDDE90D01FD
:102150000C9A00914FF0000BB946109221070FD452
:10216000009A4A4503DA914601E0A9F10109B9F163
:10217000010F05DD109AA9F10101515C3029F4D05D
:10218000B84202DA10F1040F03DA0121CDE901109F
:1021900010E0002803DC8344A9EB000102E0411CAD
:1021A000494500DD8946A0EB0B00401C01904FF033
:1021B00000400290200705D40198484502DB4FF00B
:1021C000FF30019000208DF84B0002980DF14B0775
:1021D000B0F1004F25D002200C902B200D900298DA
:1021E00000280CDA404202902D200D9007E00A21D1
:1021F0000298FEF7B1F93031029007F8011D0C99F1
:10220000481E0C900029F2DC02980028EFD1791EBC
:102210000D980870307800F0200040F0450007F875
:10222000020D11A8C01BC01D02901398007800B1C8
:10223000012000EB0901019801EBE07102980144D3
:102240000398401A401E0390E00306D453462146EB
:10225000179A039800F05CF805441398007818B1B9
:102260005246179990476D1CE00323D553462146EB
:10227000179A039800F04CF805441BE0BBF1000FDF
:1022800007DB0098584504DD1098179910F80B00EB
:1022900001E0179930205246904701980BF1010B4D
:1022A000401E05F10105019004D12E2052461799D8
:1022B00090476D1CB9F10001A9F10109DEDC05E0D0
:1022C00017F8010B5246179990476D1C0299481E4A
:1022D00002900029F4DC53462146179A03989EE6A3
:1022E0002D0000002B000000200000002DE9F0412F
:1022F000044600251E461746880404D405E03946E6
:102300002020B0476D1C641EF9D52846BDE8F08139
:102310002DE9F041044600251E469046C80301D52C
:10232000302700E02027880404D505E041463846E0
:10233000B0476D1C641EF9D52846BDE8F081000049
:102340002DE9FE4F40480068471F40480068A0F153
:1023500005080020009001900290B8F1000F01DD07
:10236000424600E0002291B2002F01DD3A4600E033
:10237000002290B20A231A46FEF7C1FC00214FF456
:102380007840FFF747F8314A128891B22E4A1288F6
:1023900090B201230222FEF716FC002440E0601CEC
:1023A00000F00106354638E004EB041000EB441061
:1023B00027490844405D23282ED1012E16D1FF2045
:1023C0000090019004EBD472521002EB820252048E
:1023D000110C05EBD572521002EB820252040290EE
:1023E000100C02230A22FEF78AFC15E0FF20009061
:1023F000019004EBD472521002EB82025204110CD1
:1024000005EBD572521002EB820252040290100CBE
:102410000A230222FEF773FCAD1C312DC4DB641CC1
:102420003B2CBCDB0020FF21CDE90001094A0290D2
:10243000128891B2084A128890B204231A46FEF715
:102440005EFCBDE8FE8F00000400002008000020B4
:10245000180D0020340000203000002070B5044624
:102460000D46E1B20548FFF7FFFA00BF802103489F
:10247000FFF780FA0028F9D0204670BD00380140EF
:1024800010B50446074850F82400A04201D1204668
:1024900010BD044951F82400FFF7F2FF014941F84B
:1024A0002400F5E738020020FEF780FFFEF7BCFDB0
:1024B0000620FEF75DFD2948FEF7B6FF00214FF428
:1024C0007840FEF7A7FFFFF789F94FF0E020006999
:1024D00040F001004FF0E0210861FEF7ABFF202043
:1024E0001F490860012008600220091D0860FFF7ED
:1024F00001FAFEF7BDF9FEF72BFB4FF4A073F022B3
:1025000000210846FEF740FB00F032F8FFF718FF05
:102510001448006800F02CFA1FE001211248FEF771
:1025200065FF01280ED10F490968481CC11700EB4F
:1025300091718910A0EB81010A4A11601046006870
:1025400000F016FA4FF400510848FEF74FFF01283B
:1025500003D10448006800F055F9DEE7E8010020E7
:10256000100C01402C000020000801400010014028
:102570002DE9F041232240F64B319E48FDF73AFE0B
:1025800000201EE0002119E000EB400201EBC20236
:1025900000EB400301EBC303974C44F823202022B7
:1025A000012303EB400303EB031404EB4313914CAF
:1025B0002344012404EB41041A55491C1829E3DB88
:1025C000401C1D28DEDB00203FE000213AE08B4A62
:1025D000126802EB82028A4B43F82200874A126893
:1025E00002EB820203EB82025160844A126802EB22
:1025F000820203EB820290604A1C804B1B6803EB53
:1026000083037F4C04EB8303DA602322012303EB73
:10261000400303EB031404EB4313764C23440224DE
:1026200004EB41041A550022744B1B6803EB83032F
:10263000734C04EB83031A61704A1268521C6F4B8F
:102640001A60491C1729C2DB401C1D28BDDB002075
:1026500040E000213BE0694A126802EB8202684BCD
:1026600043F82210654A126802EB820203EB8202F1
:1026700050604A1C614B1B6803EB8303604C04EB06
:1026800083039A605D4A126802EB8202234603EBE1
:102690008202D0602322022303EB410303EB0314E5
:1026A00004EB4313534C2344012404EB40041A5518
:1026B0000122524B1B6803EB8303514C04EB830351
:1026C0001A614E4A1268521C4C4B1A60491C1C2954
:1026D000C1DB401C1828BCDB85E0FDF759FD4749EC
:1026E000096890FBF1F201FB120404EB8401444AF7
:1026F00002EB8101C96804EB8402414B03EB8202C7
:10270000926802EB420201EBC200FFF7B9FE0646F7
:1027100004EB84013A4A02EB8101496804EB84022C
:10272000374B53F8222002EB420201EBC200FFF7C5
:10273000A7FE0746BE423CD02F4840F8267004EB67
:1027400084002F4901EB80000069C8B9202104EB07
:1027500084002B4A52F82000012202EB400000EBDB
:10276000001202EB4010234A024404EB8400244B85
:1027700003EB80004068022303EB4000115418E093
:10278000202104EB84001E4A52F82000022202EBB2
:10279000400000EB001202EB4010164A024404EB2A
:1027A0008400174B03EB80004068012303EB4000DB
:1027B0001154651C0DE005EB8502114B03EB820102
:1027C0006A1E02EB820203EB82001422FDF7F2FC88
:1027D0006D1C0A4800688542EDDB08480068401E11
:1027E0000649086000BF0548006800287FF475AFFF
:1027F000BDE8F081180D0020380200200000002004
:102800006418002070B50446404850F82400404940
:1028100009680844002862DB3C4850F824003C4921
:1028200009680844F0285ADC3A4850F824003A492C
:1028300009680844002852DB364850F8240036491D
:1028400009680844B0F5A07F49DC324A32F82420F8
:10285000314B1B881A4491B22C4A32F824202C4B5D
:102860001B881A4490B2FEF777FB0546294850F8BA
:102870002400294B1B68C218244850F82400244B1C
:102880001B68C1182B4625A0FFF7F4F8214A32F83F
:102890002420214B1B881A4491B21C4A32F8242070
:1028A0001B4B1B881A4490B2FEF756FB4FF6FF7184
:1028B000884214D0154850F8240015490968084486
:1028C00013490860134850F8240013490968084464
:1028D00011490860FFF734FD204600F049F80C4824
:1028E000006811490968401A40430B4909680F4ABA
:1028F0001268891A084A12680C4B1B68D21A01FB2D
:102900000200102801DC00F013F870BD0C0000205C
:10291000040000201C000020080000202564202561
:10292000642025640A0000003000002034000020EC
:1029300010B506200B4908600B49086000200B49C0
:1029400008604FF4A073F02200210846FEF71CF93E
:10295000FFF70EFEFFF7F4FC0448006800F008F8EB
:1029600010BD000004000020080000202C00002002
:10297000FEB50746002428E0002523E007EBC7004A
:1029800000EB0710124901EB800004EB840100EB1F
:10299000810050F82500012801D1FF2000E000202F
:1029A00006460096019605EB450202F5967291B235
:1029B00004EB44026E3290B203231A460296FEF7ED
:1029C0009EF96D1C052DD9DB641C052CD4DBFEBDE6
:1029D000380000200000000000000000000000009F
:1029E0000000000000000018181818181808000847
:1029F000180000000000003424242400000000001F
:102A0000000000000000000016247F2424247E24FF
:102A100024000000000000083E6848681C161212DE
:102A20007C10100000000061D2967408101629492D
:102A3000C6000000000000003C646438724ACE46C4
:102A40007F000000000000181818180000000000A7
:102A50000000000000000004081810303030301072
:102A600010180C04000000201008080C0404040CCA
:102A700008181020000000080A341C6A0800000032
:102A8000000000000000000000001818187F18184F
:102A90001800000000000000000000000000001806
:102AA000180830000000000000000000003C00009A
:102AB00000000000000000000000000000000018FE
:102AC000180000000000000206040C080810102086
:102AD00020400000000000003C6642475B734266F5
:102AE0003C000000000000001878480808080808AA
:102AF0007E000000000000003C460606040810208E
:102B00007E000000000000007C0606043C02020675
:102B10007C000000000000000C1C14246444FF042E
:102B200004000000000000007E6060607E0202067B
:102B30007C000000000000001E30604876424262C7
:102B40003C000000000000007E0206040C08181083
:102B500030000000000000003C6242361C66424229
:102B60003C000000000000003C664242661A02047D
:102B70007800000000000000000018180000001895
:102B800018000000000000000000181800000018E5
:102B90001808300000000000000004183060100C1D
:102BA0000600000000000000000000007E007E0023
:102BB00000000000000000000000301804060C10A7
:102BC00020000000000000301C060606181000104F
:102BD000100000000000001C224141DDB5A5A5AF9A
:102BE00094C0403C00000000181C342426627E4340
:102BF000C1000000000000007C4642467C42424288
:102C00007C000000000000001E204040404040606A
:102C10003E000000000000007C4642434343424621
:102C200078000000000000007E6060607E606060F0
:102C30007E000000000000007E6060607E606060DA
:102C400060000000000000001E604040CE42426272
:102C50003E00000000000000424242427E424242EA
:102C600042000000000000007E18181818181818FC
:102C70007E000000000000007C04040404040444FE
:102C800078000000000000004244485070584C4456
:102C900042000000000000002020202020202020F2
:102CA0003E000000000000006266675F5B5BC1C120
:102CB000C100000000000000626272525A4A4E4693
:102CC00046000000000000003C6243C3C3C34362EF
:102CD0003C000000000000007C4642424678404034
:102CE00040000000000000003C6243C3C3C34362D5
:102CF0003C180F00000000007C6662667C6C646615
:102D000062000000000000003E6040601C060202FD
:102D10007C000000000000007F1818181818181810
:102D2000180000000000000042424242424242625B
:102D30003C00000000000000C14342622624341C15
:102D40001800000000000000C1C141495B5B7666CD
:102D5000660000000000000043663418181C24665A
:102D6000C300000000000000C14266341C1818189F
:102D700018000000000000007E02040C1810206003
:102D80007E0000000000001C101010101010101029
:102D90001010101C000000402020101008080C0427
:102DA000060200000000003C0C0C0C0C0C0C0C0C7F
:102DB0000C0C0C3C00000000181C246200000000F9
:102DC0000000000000000000000000000000000003
:102DD000000000FF000000201000000000000000C4
:102DE000000000000000000000003C06023E4246D9
:102DF0007A0000000000004040405C6242424242D3
:102E00007C0000000000000000001E2060406020E8
:102E10003E0000000000000202023E6242424266A2
:102E20003A0000000000000000003C62427E40606A
:102E30003E0000000000000F1810107E101010104F
:102E4000100000000000000000003F66426658408D
:102E50003E43423C0000004040405C6242424242ED
:102E60004200000000000018180078080808080850
:102E70007E000000000000040C007C040404040434
:102E800004040C78000000606060626C7870686414
:102E90006200000000000078080808080808080818
:102EA0007E000000000000000000764B4B4B4B4BB7
:102EB0004B0000000000000000005C624242424201
:102EC000420000000000000000003C6242434262F9
:102ED0003C0000000000000000005C6242424242F0
:102EE0007C4040400000000000003E6242424266DA
:102EF0003A0202020000000000006E72636060602F
:102F0000600000000000000000003E20203C06029F
:102F10007C000000000000001010FE1010101010C7
:102F20001E000000000000000000424242424266D3
:102F30003A000000000000000000434266243418FC
:102F400018000000000000000000C1C15B5A5E666E
:102F50006600000000000000000062261C181C260D
:102F60006200000000000000000043426624341CA0
:102F7000181830E00000000000007E060C18102039
:102F80007E0000000000000E1810101030701010AD
:102F90001010180E0000080808080808080808089B
:102FA0000808080800000030180808080C0E080877
:102FB000080818300000000000000000714B0600F7
:102FC0000000000000000000000000000000000001
:102FD00000000000000000000000000000000000F1
:102FE00000000000000000000000000000000000E1
:102FF000000000000000000000000000000003804E
:1030000001800180018001800180018001800180B8
:1030100001800000000003C003C0000000000000A9
:1030200000000000000000000000000000000E7022
:103030000E700E700C300000000000000000000058
:103040000000000000000000000000000000000080
:103050000000000000000000000000000000000070
:103060000618063806307FFE0C300C300C300C3061
:103070007FFE0C601C6018601860000000000000FB
:1030800000000000000000000000000000C000C0C0
:103090000FF83CC831C031803D801F8003F001F83B
:1030A000031C030C031C3FF83FE007000600000070
:1030B0000000000000000000000000001C007E0E68
:1030C000630C631863307E6000C001800300077CDE
:1030D0000EE61CC618C630C6607C0000000000006A
:1030E00000000000000000000000000000000FE0F1
:1030F0001CF0387038701C601FC00F003F8C71CC02
:1031000060EC607C70383CFC1FCE000000000000CA
:10311000000000000000000000000000000003C0EC
:10312000018001800180000000000000000000001C
:10313000000000000000000000000000000000008F
:10314000000000000000000000000000003000E06F
:1031500001C0018003000700060006000E000E00FB
:103160000E000E00060007000300038001C000E00F
:103170000030000000000000000000000C0006000D
:103180000380018001C000E00060006000700070FA
:1031900000700060006000E000C001800380060055
:1031A0000C00000000000000000000000000018092
:1031B00011881DB803C007E03DBC018801800000F4
:1031C00000000000000000000000000000000000FF
:1031D00000000000000000000000000000000000EF
:1031E00000000000018001800180018001807FFEDD
:1031F00001800180018001800000000000000000CB
:1032000000000000000000000000000000000000BE
:1032100000000000000000000000000000000000AE
:103220000000000003C003C001C001C003801F00F4
:10323000000000000000000000000000000000008E
:1032400000000000000000000000000000000FF07F
:10325000000000000000000000000000000000006E
:10326000000000000000000000000000000000005E
:10327000000000000000000000000000000000004E
:103280000000000003C003C003C0000000000000F5
:103290000000000000000000000000000000001816
:1032A00000380030006000E000C001C00180030071
:1032B000030006000E000C001C0018003000000087
:1032C000000000000000000000000000000001807D
:1032D0000FF01C38381C301C707E70EE738E7E0E22
:1032E0007C0C300C381C1E780FE000000000000041
:1032F00000000000000000000000000000000000CE
:1033000007C01FC039C001C001C001C001C001C059
:1033100001C001C001C03FFC3FFC000000000000F4
:10332000000000000000000000000000000003801A
:103330001FF018380038001800380038007001E01D
:10334000038007001C003FFC3FFC00000000000061
:1033500000000000000000000000000000000780E6
:103360001FF0003800380038003007E007F0003860
:10337000001C001C001820F83FE0000000000000C6
:10338000000000000000000000000000000000003D
:1033900000F001B0033007300E301C303830703090
:1033A0007FFE7FFE00300030003000000000000093
:1033B000000000000000000000000000000000000D
:1033C0001FF818001800180018001FE000F8001C73
:1033D000001C001C003800F01FC0000000000000AE
:1033E00000000000000000000000000000000000DD
:1033F00003F80F001C001800300037F83C3C300C7C
:10340000300C380C381C1E380FF000000000000093
:1034100000000000000000000000000000000000AC
:103420003FFC001C001800380070006000E001C084
:1034300001800380070006000E000000000000006D
:10344000000000000000000000000000000003C0B9
:103450001FF8381C381C381C1C380FF007F01C787B
:10346000381C300C381C3C380FF000000000000005
:1034700000000000000000000000000000000380C9
:103480001FF03838301C701C700C380C1FFC0FCC2F
:10349000001C001800701FE01F80000000000000EA
:1034A000000000000000000000000000000000001C
:1034B00000000000000003C003C001800000000005
:1034C0000000000003C003C003C0000000000000B3
:1034D00000000000000000000000000000000000EC
:1034E00000000000000003C003C0018000000000D5
:1034F0000000000003C003C001C001C003800F0032
:1035000000000000000000000000000000000000BB
:1035100000000000003800F001C007001E00380065
:103520000E00078001C000700030000000000000A5
:10353000000000000000000000000000000000008B
:10354000000000000000000000003FFC0000000040
:103550003FFC3FFC000000000000000000000000F5
:10356000000000000000000000000000000000005B
:10357000000000001C000F00038001E00078001C28
:10358000007001E003800E000C000000000000004D
:1035900000000000000000000000000000000FC05C
:1035A00000F0003800380038003803F003800300D2
:1035B00003000000000007800780000000000000FA
:1035C00000000000000000000000000000E007F81C
:1035D0000C0C18063006700363F36633C673CC63B5
:1035E000CC62CC66CCE6C7FCE0006000700038100E
:1035F0001FF00000000000000000000000000000BC
:1036000003C007E006E00E700E700C301C3818186E
:103610003FFC3FFC700E600EE00700000000000061
:10362000000000000000000000000000000000009A
:103630003FF03838381C381C38383FF03FF8381C19
:10364000380C380C381C3FF83FE000000000000048
:10365000000000000000000000000000000000E08A
:1036600007FC1E0438003800300070007000700045
:10367000300038003C001F9C07FC000000000000E8
:10368000000000000000000000000000000000003A
:103690003FF03078301C300C300E300E300E300ED3
:1036A000300E301C30383FF03FC0000000000000FA
:1036B000000000000000000000000000000000000A
:1036C0001FF818001800180018001FF81FF818003D
:1036D0001800180018001FF81FF800000000000074
:1036E00000000000000000000000000000000000DA
:1036F0001FF818001800180018001FF81FF818000D
:103700001800180018001800180000000000000041
:10371000000000000000000000000000000000F0B9
:1037200007FC1E04380030007000700070FC700C44
:10373000700C300C380C1F1C07FC0000000000004F
:103740000000000000000000000000000000000079
:10375000300C300C300C300C300C3FFC3FFC300C8B
:10376000300C300C300C300C300C0000000000002D
:103770000000000000000000000000000000000049
:103780003FFC018001800180018001800180018077
:103790000180018001803FFC3FFC00000000000030
:1037A0000000000000000000000000000000000019
:1037B0001FF00030003000300030003000300030AA
:1037C0000030003000701DE01FC00000000000004D
:1037D00000000000000000000000000000000000E9
:1037E000381C387038E039C03B803F003F003B80D8
:1037F00039C038E038703838381C0000000000004C
:1038000000000000000000000000000000000000B8
:103810001C001C001C001C001C001C001C001C00C8
:103820001C001C001C001FFC1FFC0000000000000E
:103830000000000000000000000000000000000088
:10384000381C7C3C6C3E6E6E666E66CE63C66386CC
:1038500061866006600660066006000000000000E9
:103860000000000000000000000000000000000058
:103870003C0C3C0C3E0C360C330C338C318C31CC74
:1038800030EC306C307C303C301C0000000000001C
:10389000000000000000000000000000000001C067
:1038A0000FF81C3C381C700E700E60066006700E1F
:1038B000700E700C381C1E780FE000000000000035
:1038C00000000000000000000000000000000000F8
:1038D0003FF0383C381C380C380C381C38783FE046
:1038E00038003800380038003800000000000000C0
:1038F000000000000000000000000000000001C007
:103900000FF81C3C381C700E700E60066006700EBE
:10391000700E700C381C1E780FE0018001C000FF93
:10392000003C00000000000000000000000000005B
:103930003FF0383838183818383838F03FC038E099
:10394000387038383838381C380E00000000000055
:10395000000000000000000000000000000001E086
:103960000FF83800380038003C001F8003F0007862
:10397000001C001C001C38783FE000000000000024
:103980000000000000000000000000000000000037
:103990007FFE018001800180018001800180018023
:1039A0000180018001800180018000000000000092
:1039B0000000000000000000000000000000000007
:1039C000300C300C300C300C300C300C300C300C17
:1039D000300C300C381C1C380FF0000000000000C8
:1039E00000000000000000000000000000000000D7
:1039F000E006700E700E381C381C1C181C380C3079
:103A00000E70066007E003C003C000000000000065
:103A100000000000000000000000000000000000A6
:103A200060066006600660066186638673C673CEB4
:103A3000766C366C3C3C3C3C381C000000000000BE
:103A40000000000000000000000000000000000076
:103A5000301C38181C380E7007E003C003C007E0A4
:103A60000E701C381838381C700E00000000000062
:103A70000000000000000000000000000000000046
:103A8000700E700C381C1C380E70066007E003C006
:103A900001800180018001800180000000000000A1
:103AA0000000000000000000000000000000000016
:103AB0003FFC001C0038007000E001C003800700DC
:103AC0000E000C0018003FFC3FFC0000000000004E
:103AD00000000000000000000000000007F007F0F8
:103AE00006000600060006000600060006000600A6
:103AF0000600060006000600060006000600060096
:103B000007F00000000000000000000000001800A6
:103B10001C000C000600070003000380018001C0A8
:103B200000C000600070003000380018000C000079
:103B30000000000000000000000000000FE00FE0A7
:103B40000060006000600060006000600060006075
:103B50000060006000600060006000600060006065
:103B60000FE0000000000000000000000000000066
:103B700003C006C006600C301818301C000000009E
:103B80000000000000000000000000000000000035
:103B90000000000000000000000000000000000025
:103BA0000000000000000000000000000000000015
:103BB0000000000000000000000000000000000005
:103BC000FFFF0000000000000000000000001E00D9
:103BD0000380000000000000000000000000000062
:103BE00000000000000000000000000000000000D5
:103BF00000000000000000000000000000000000C5
:103C00000000000000001FF01038001C001C0FFC1A
:103C10001C1C381C381C3CFC1FDC00000000000091
:103C2000000000000000000000000000000038005C
:103C30003800380038003BF83E1C3C1C380C380C6F
:103C4000380C380C381C3C781FE0000000000000E5
:103C50000000000000000000000000000000000064
:103C600000000000000007F80E001C0038003800BB
:103C7000380038001C000F1807F800000000000092
:103C80000000000000000000000000000000001C18
:103C9000001C001C001C0FFC1C1C381C301C301CA1
:103CA000301C301C383C1CFC0F9C00000000000045
:103CB0000000000000000000000000000000000004
:103CC0000000000000000FF01C38381C300C3FFCD6
:103CD0003000300038001E0C07FC0000000000001F
:103CE000000000000000000000000000003C01FE99
:103CF00003800300030003007FFC7FFC030003003C
:103D000003000300030003000300000000000000A4
:103D100000000000000000000000000000000000A3
:103D20000000000000000FFE1C3838183818183842
:103D30001FF03B8030003FF01FFC300E700E381C2F
:103D40001FF8000000000000000000000000380024
:103D50003800380038003BF83E383C1C381C381C12
:103D6000381C381C381C381C381C000000000000AF
:103D7000000000000000000000000000018003C0FF
:103D800003C0000000001FC001C001C001C001C08D
:103D900001C001C001C001C03FFC000000000000E4
:103DA0000000000000000000000000000020007083
:103DB0000070000000003FF00070007000700070A4
:103DC000007000700070007000700070007020E0E3
:103DD0003FC00000000000000000000000001800CC
:103DE000180018001800183C187018E01B801F00FD
:103DF0001B8019E018701838181C00000000000023
:103E000000000000000000000000000000001FC0D3
:103E100001C001C001C001C001C001C001C001C09A
:103E200001C001C001C001C03FFC00000000000053
:103E30000000000000000000000000000000000082
:103E40000000000000006F3C79EE71CE718E718E23
:103E5000718E718E718E718E718E00000000000067
:103E60000000000000000000000000000000000052
:103E70000000000000003BF83E383C1C381C381C99
:103E8000381C381C381C381C381C0000000000008E
:103E90000000000000000000000000000000000022
:103EA0000000000000000FF01C3C381C700E700E6B
:103EB000700E700C381C1E780FE00000000000002F
:103EC00000000000000000000000000000000000F2
:103ED0000000000000003BF83E1C3C1C380C380C75
:103EE000380C380C381C3C783FE03800380038007B
:103EF000380000000000000000000000000000008A
:103F00000000000000000FFC1C1C381C301C301C82
:103F1000301C301C383C1CFC0F9C001C001C001C7E
:103F2000001C000000000000000000000000000075
:103F300000000000000019F81F1C1C0C180E1800CF
:103F400018001800180018001800000000000000F9
:103F50000000000000000000000000000000000061
:103F60000000000000000FF81C0018001E000FC029
:103F700001F80018001818381FF0000000000000B9
:103F80000000000000000000000000000000000031
:103F90000600060006007FFC06000600060006007C
:103FA000060006000700078401FC00000000000076
:103FB0000000000000000000000000000000000001
:103FC000000000000000381C381C381C381C381C4D
:103FD000381C381C383C1CFC0FDC000000000000C2
:103FE00000000000000000000000000000000000D1
:103FF000000000000000700C381C38181C380C3011
:104000000E70066007E003C003C00000000000005F
:1040100000000000000000000000000000000000A0
:10402000000000000000600660066186738E73CC9D
:1040300033CC366C366C3C3C3C3800000000000051
:104040000000000000000000000000000000000070
:10405000000000000000381C1C380E7007E003C090
:1040600003C007E00E701C38381E0000000000007E
:104070000000000000000000000000000000000040
:10408000000000000000700C381C38181C380C3080
:104090000E70066007E003C003C0038007000E0037
:1040A0007C00000000000000000000000000000094
:1040B0000000000000001FF80038007000E001C0A0
:1040C000038007000C001FFC3FFC00000000000004
:1040D000000000000000000000000000007801F86F
:1040E0000380038003800380038003003F003E00C1
:1040F000030003800380038003800380038001C0EA
:1041000000F80000000000000180018001800180B3
:104110000180018001800180018001800180018097
:104120000180018001800180018001800180018087
:104130000180000000000000000000001E001F8041
:10414000018001C001C001C001C000C000FC007CB2
:1041500000C001C001C001C001C001C001C0038096
:104160001F00000000000000000000000000000030
:10417000000000000000000000001C003F0671CE9F
:1041800060FC0000000000000000000000000000D3
:10419000000000000000000000000000000000001F
:1041A000000000000000000000000000000000000F
:1041B00000000000000000000000000000000000FF
:1041C00000000000000000000000000000000000EF
:1041D00000000000000000000000000000000000DF
:1041E00000000000000000000000000000000000CF
:1041F00000000000000000000000000000000000BF
:10420000000000000000003C00003C00003C0000FA
:104210003C00003C00003C00003C00003C00003C36
:1042200000003C00003C00003C00003C00003C0062
:10423000000000000000003C00007E00003C000088
:10424000000000000000000000000000000000006E
:10425000000000000000000000000000000000005E
:1042600000000000000003C3E003C3E003C3C00379
:10427000C3C003C3C003C3C003C1C000000000002B
:10428000000000000000000000000000000000002E
:10429000000000000000000000000000000000001E
:1042A000000000000000000000000000000000000E
:1042B00000000000000000000000000000000000FE
:1042C00000000000000000000000000001E0E0012C
:1042D000C0E001C0E001C0E03FFFFE3FFFFE03C1C0
:1042E000C00381C00381C00381C07FFFFC7FFFFC4E
:1042F0000783800703800703800703800707800088
:1043000000000000000000000000000000000000AD
:10431000000000000000000000000000000000009D
:10432000000000000700000F00000E0001FFF00772
:10433000FFF01F0E001E1E001E1C001E1C000FDCC6
:104340000007FC0000FF80003FF00038F8003878DC
:1043500000783C0070783071F83FFFE01FFF0000EC
:10436000E00000E00000E0000000000000000000AD
:10437000000000000000000000000000000000003D
:104380000000000000000F800F3FE01E78703C70BE
:1043900070707070E07071C03FE3801FC700000E46
:1043A00000001C0000780000F0F001E7FC03CF0ED5
:1043B000078E0E0F0E0E1E0E0E3C07BC7003F8008B
:1043C00000000000000000000000000000000000ED
:1043D00000000000000000000000000000000000DD
:1043E00000000000000000000001FF0007FF800F38
:1043F00003C00F03C00F03C00F0780079F0003FE19
:104400000003F0000FF83C3E7C3C3C1F3C780FF86A
:104410007807F87C01F03E03F81FFFFC07FE1F0041
:10442000000000000000000000000000000000008C
:10443000000000000000000000000000000000007C
:10444000000000000000003E00003C00003C0000B6
:104450003C00003C00003C00003C0000000000006C
:10446000000000000000000000000000000000004C
:10447000000000000000000000000000000000003C
:10448000000000000000000000000000000000002C
:10449000000000000000000000000000000000001C
:1044A0000000000000800001C0000780000F000035
:1044B0001E00003C0000780000F00000E00001E079
:1044C0000001E00001C00003C00003C00001C00003
:1044D00001E00001E00000F00000F00000780000C2
:1044E0003C00001E00000F000007C00001C00000DB
:1044F00000000000000000000000000000000000BC
:1045000000000000000003C00001E00000F0000017
:104510007C00003E00001E00000F00000780000726
:10452000800003800003C00003C00003C00003C07C
:10453000000380000780000780000F00001E0000BD
:104540003C0000780000F00001E000038000000063
:10455000000000000000000000000000000000005B
:10456000000000000000001C00001C000018000FEC
:1045700018F007DBE0007F0000FF0007DBE00E180B
:1045800070001800001C00001C000000000000006B
:10459000000000000000000000000000000000001B
:1045A000000000000000000000000000000000000B
:1045B00000000000000000000000000000000000FB
:1045C00000000000000000000000000000000000EB
:1045D0000000000000003C00003C00003C00003CEB
:1045E00000003C00003C003FFFFC3FFFFC003C00A3
:1045F000003C00003C00003C00003C0000000000CB
:1046000000000000000000000000000000000000AA
:10461000000000000000000000000000000000009A
:10462000000000000000000000000000000000008A
:10463000000000000000000000000000000000007A
:10464000000000000000000000000000000000006A
:10465000000000007C00007E00007E00003E0000A4
:104660001E00003C0000F80007E00004000000000D
:10467000000000000000000000000000000000003A
:10468000000000000000000000000000000000002A
:10469000000000000000000000000000000000001A
:1046A0000000000000000003FFE003FFE000000046
:1046B00000000000000000000000000000000000FA
:1046C00000000000000000000000000000000000EA
:1046D00000000000000000000000000000000000DA
:1046E00000000000000000000000000000000000CA
:1046F00000000000000000000000000000000000BA
:1047000000000000000000000000000000000000A9
:10471000000000007C0000FE0000FE00007E0000A3
:104720000000000000000000000000000000000089
:104730000000000000000000000000000000000079
:104740000000000000000000780000F00000E00021
:1047500001E00003C0000380000780000F00000E8E
:1047600000001E00003C0000380000700000F00057
:1047700000E00001C00003C0000780000700000F38
:1047800000001E00001C00000000000000000000EF
:104790000000000000000000000000000000000019
:1047A00000000000000000000000000001FFC00742
:1047B000FFE00F00F01E00781E003C3C00FC3C07B0
:1047C000FC3C1FBC3C7C1C3DF03C3FC03C3F003CE3
:1047D0001E00381E00780F80F007FFE001FF800008
:1047E00000000000000000000000000000000000C9
:1047F00000000000000000000000000000000000B9
:10480000000000000000000000000000007E000327
:10481000FE001FDE000E1E00001E00001E00001E17
:1048200000001E00001E00001E00001E00001E00F2
:10483000001E00001E00001E000FFFF80FFFF80012
:104840000000000000000000000000000000000068
:104850000000000000000000000000000000000058
:1048600000000000000000000000000003FF800FB7
:10487000FFE00E01F00000F00000F00000F000008A
:10488000F00001E00003C0000F80003E00007C004B
:1048900001F00003C0000F80001FFFFC1FFFFC00A1
:1048A0000000000000000000000000000000000008
:1048B00000000000000000000000000000000000F8
:1048C0000000000000000000000000000FFF800F4B
:1048D000FFE00001E00000F00000F00001E0000354
:1048E000C001FF0001FFC00003F000007800007865
:1048F0000000780000780001F00FFFC00FFF0000FB
:1049000000000000000000000000000000000000A7
:104910000000000000000000000000000000000097
:10492000000000000000000000000000000FC000B8
:104930001FC0003FC0007BC000F3C001E3C003C341
:10494000C00783C00F03C01C03C03803C07FFFFE35
:104950007FFFFE0003C00003C00003C00003C000CF
:104960000000000000000000000000000000000047
:104970000000000000000000000000000000000037
:104980000000000000000000000000000FFFE00F2A
:10499000FFE00F00000F00000F00000F00000F00ED
:1049A000000FFF800FFFE00000F0000078000078AB
:1049B0000000780000F00003E00FFFC00FFE0000D1
:1049C00000000000000000000000000000000000E7
:1049D00000000000000000000000000000000000D7
:1049E000000000000000000000000000003FF00197
:1049F000FFF003E0000780000F00001E00001E1FF4
:104A0000001FFFE01FC1F81E00781E003C1E003C86
:104A10001E003C0F00780F80F807FFE001FF8000C8
:104A20000000000000000000000000000000000086
:104A30000000000000000000000000000000000076
:104A40000000000000000000000000001FFFFC1F2D
:104A5000FFFC0000780000F00000E00001E000032F
:104A6000C0000780000F00000F00001E00003C0087
:104A700000780000F00001F00001E00003C0000039
:104A80000000000000000000000000000000000026
:104A90000000000000000000000000000000000016
:104AA00000000000000000000000000003FFE00F15
:104AB000E3F00F00781E00781E00780F00F007E387
:104AC000E001FF8001FF8007E7E00F00F81E00789B
:104AD0001E003C1E007C1F00F80FFFF003FFC0000B
:104AE00000000000000000000000000000000000C6
:104AF00000000000000000000000000000000000B6
:104B000000000000000000000000000003FF800F14
:104B1000C7E01E00F01E00783C00783C00783C00A6
:104B2000381E00780FEFF807FFB800007800007813
:104B30000000F00001E0000FC00FFF000FF00000C8
:104B40000000000000000000000000000000000065
:104B50000000000000000000000000000000000055
:104B60000000000000000000000000000000000045
:104B70000000000000000000007E00007E00007EBB
:104B8000000018000000000000000000000000000D
:104B9000000000003C00007E00007E00003E00009F
:104BA0000000000000000000000000000000000005
:104BB00000000000000000000000000000000000F5
:104BC00000000000000000000000000000000000E5
:104BD0000000000000000000007E00007E00007E5B
:104BE00000001800000000000000000000000000AD
:104BF000000000003E00007E00007F00001F00005B
:104C00001E00001E0000FC0007F000040000000071
:104C10000000000000000000000000000000000094
:104C20000000000000000000000000000000000084
:104C300000000000400001E00007C0001F00007EEF
:104C40000001F80003E0000F80000F800003E00087
:104C500000F800003E00000F800003E00000E000CC
:104C60000000000000000000000000000000000044
:104C70000000000000000000000000000000000034
:104C80000000000000000000000000000000000024
:104C90000000000000000000000000000000000014
:104CA000001FFFF80000000000000000001FFFF8D8
:104CB0001FFFF800000000000000000000000000DE
:104CC00000000000000000000000000000000000E4
:104CD00000000000000000000000000000000000D4
:104CE00000000000000000000000000000000000C4
:104CF000000000000007800003E00000F800003E14
:104D000000000F800003E00000F80001F00007C081
:104D1000001F00007C0001F00007C000030000003D
:104D20000000000000000000000000000000000083
:104D30000000000000000000000000000000000073
:104D400000000000000001C00001FE00007F8000A4
:104D500007C00001E00000F00000F00001F00003D7
:104D6000E0007FC0007E0000700000700000700056
:104D700000000000000000F80000F80000F800004B
:104D80000000000000000000000000000000000023
:104D90000000000000000000000000000000000013
:104DA000000000000000001F8000FFF003C0780733
:104DB000801C0E000E1C000E3C000F383FC778FF11
:104DC000C770E3C771C3C7F3C387E3C387E3878EA5
:104DD000E3878EE3CF8EE3FFFC71F9F07000007083
:104DE00000003800003C00000F01C007FFC00000B9
:104DF00000000000000000000000000000000000B3
:104E0000000000000000000000000000007E000024
:104E10007F0000FF0000E78001E78003C3C003C3F9
:104E2000C00781E00781E00F00F00F00F81FFFF8D6
:104E30001FFFFC3C003C3C001E78001EF0000F00F1
:104E40000000000000000000000000000000000062
:104E50000000000000000000000000000000000052
:104E60000000000000000000000000001FFFC01F45
:104E7000FFF01E00F01E00781E00781E00F01E01DC
:104E8000F01FFFC01FFFE01E01F81E00781E003C4F
:104E90001E003C1E00781E00F81FFFE01FFF0000F0
:104EA0000000000000000000000000000000000002
:104EB00000000000000000000000000000000000F2
:104EC00000000000000000000000000000FFF803E8
:104ED000FFF807C0000F00001E00001E00003C008D
:104EE000003C00003C00003C00003C00003E000094
:104EF0001E00000F00000FC00803FFF800FFF800BD
:104F000000000000000000000000000000000000A1
:104F10000000000000000000000000000000000091
:104F20000000000000000000000000003FFF003F04
:104F3000FFE03C01F03C00783C003C3C003C3C0085
:104F40003C3C001E3C001E3C001E3C003C3C003C27
:104F50003C00783C00F83C07E03FFFC03FFC00000D
:104F60000000000000000000000000000000000041
:104F70000000000000000000000000000000000031
:104F80000000000000000000000000000FFFF00F14
:104F9000FFF00F00000F00000F00000F00000F00D7
:104FA000000FFFF00FFFF00F00000F00000F0000D8
:104FB0000F00000F00000F00000FFFF00FFFF000C8
:104FC00000000000000000000000000000000000E1
:104FD00000000000000000000000000000000000D1
:104FE0000000000000000000000000000FFFF00FB4
:104FF000FFF00F00000F00000F00000F00000F0077
:10500000000FFFF00FFFF00F00000F00000F000077
:105010000F00000F00000F00000F00000F00000045
:105020000000000000000000000000000000000080
:105030000000000000000000000000000000000070
:1050400000000000000000000000000000FFFC0362
:10505000FFFC0FC0041F00001E00003C00003C00CD
:1050600000780FFC780FFC78003C3C003C3C003C96
:105070003E003C1F003C0FC03C03FFFC00FFF8005B
:105080000000000000000000000000000000000020
:105090000000000000000000000000000000000010
:1050A0000000000000000000000000003C003C3C4C
:1050B000003C3C003C3C003C3C003C3C003C3C0098
:1050C0003C3FFFFC3FFFFC3C003C3C003C3C003CC8
:1050D0003C003C3C003C3C003C3C003C3C003C0078
:1050E00000000000000000000000000000000000C0
:1050F00000000000000000000000000000000000B0
:105100000000000000000000000000000FFFF80F8A
:10511000FFF8003C00003C00003C00003C00003C6C
:1051200000003C00003C00003C00003C00003C0053
:10513000003C00003C00003C000FFFF80FFFF800AF
:10514000000000000000000000000000000000005F
:10515000000000000000000000000000000000004F
:105160000000000000000000000000000FFFE00F42
:10517000FFE00001E00001E00001E00001E00001CB
:10518000E00001E00001E00001E00001E00001E0DA
:105190000001E00003C00C07C00FFF8007FE000005
:1051A00000000000000000000000000000000000FF
:1051B00000000000000000000000000000000000EF
:1051C0000000000000000000000000001E00781E2B
:1051D00001F01E03C01E07801E1F001E3C001E782B
:1051E000001EF0001FF0001EF8001E3C001E1E00F6
:1051F0001E0F801E07C01E01E01E00F81E007C006E
:10520000000000000000000000000000000000009E
:10521000000000000000000000000000000000008E
:1052200000000000000000000000000007800007F0
:10523000800007800007800007800007800007804B
:1052400000078000078000078000078000078000BB
:1052500007800007800007800007FFF807FFF800BD
:10526000000000000000000000000000000000003E
:10527000000000000000000000000000000000002E
:105280000000000000000000000000003E007C3F25
:1052900000FC3F81DC3B81DC3BC39C39C39C38E78D
:1052A0001C38EF1C387E1C387C1E383C1E78001ED3
:1052B00078001E78001E78001E78001E78001E0000
:1052C00000000000000000000000000000000000DE
:1052D00000000000000000000000000000000000CE
:1052E0000000000000000000000000001F003C1F44
:1052F000803C1FC03C1DC03C1DE03C1CF03C1C78A9
:105300003C1C783C1C3C3C1C1E3C1C0F3C1C0F3CB9
:105310001C07BC1C03FC1C01FC1C00FC1C00FC004A
:10532000000000000000000000000000000000007D
:10533000000000000000000000000000000000006D
:1053400000000000000000000000000001FFC00796
:10535000FFF00F00F81E007C3C003C3C001E780073
:105360001E78001E78001E78001E78001E3C003C4F
:105370003C003C1E00781F00F007FFE001FF8000AA
:10538000000000000000000000000000000000001D
:10539000000000000000000000000000000000000D
:1053A0000000000000000000000000001FFF801F40
:1053B000FFF01E00F81E007C1E003C1E003C1E007C
:1053C0003C1E00781E03F01FFFC01FFE001E0000E1
:1053D0001E00001E00001E00001E00001E00000037
:1053E00000000000000000000000000000000000BD
:1053F00000000000000000000000000000000000AD
:1054000000000000000000000000000001FFC007D5
:10541000FFF00F00F81E007C3C003C3C001E7800B2
:105420001E78001E78001E78001E78001E3C003C8E
:105430003C003C1E00781F80F007FFE001FF800069
:105440003C00003C00001F06000FFF0001F80000B8
:10545000000000000000000000000000000000004C
:105460000000000000000000000000000FFF800F9F
:10547000FFE00E01F00E00F00E00F00E00F00E0145
:10548000F00FFFC00FFF000E1F000E07800E03C0BD
:105490000E01E00E00F00E00F80E00780E003C0049
:1054A00000000000000000000000000000000000FC
:1054B00000000000000000000000000000000000EC
:1054C00000000000000000000000000003FFF00FDB
:1054D000FFF01F00001E00001E00001F00000FC094
:1054E0000007FC0000FF80000FF00001F8000078CA
:1054F0000000780000782000F83FFFE03FFF8000C8
:10550000000000000000000000000000000000009B
:10551000000000000000000000000000000000008B
:105520000000000000000000000000003FFFFC3F02
:10553000FFFC003C00003C00003C00003C00003C44
:1055400000003C00003C00003C00003C00003C002F
:10555000003C00003C00003C00003C00003C00001F
:10556000000000000000000000000000000000003B
:10557000000000000000000000000000000000002B
:105580000000000000000000000000003C003C3C67
:10559000003C3C003C3C003C3C003C3C003C3C00B3
:1055A0003C3C003C3C003C3C003C3C003C3C003C67
:1055B0003C003C1E00781F00F80FFFE003FF800056
:1055C00000000000000000000000000000000000DB
:1055D00000000000000000000000000000000000CB
:1055E000000000000000000000000000F8000F783C
:1055F000001E3C001E3C003C1E00381E00780F00C0
:10560000700F00F00781E00781E003C3C003E3C02F
:1056100001E78000F78000FF00007E00007E0000B0
:10562000000000000000000000000000000000007A
:10563000000000000000000000000000000000006A
:1056400000000000000000000000000078000E785C
:10565000000E78000E78001E38001E38001E383C00
:105660001C383C1C387E1C387F1C3CE71C3CE79CEB
:105670003DC39C1DC3DC1F81DC1F80F81F00F800A8
:10568000000000000000000000000000000000001A
:10569000000000000000000000000000000000000A
:1056A0000000000000000000000000003C003C1E64
:1056B00000780F00F00781E003C3C001E78000FF1E
:1056C00000007E00007E0000FF0001FF8003E7C0B5
:1056D00007C3E00F81F01F00F83E007C7C003E0015
:1056E00000000000000000000000000000000000BA
:1056F00000000000000000000000000000000000AA
:1057000000000000000000000000000078001F3CC6
:10571000003E1E007C1F00780F80F007C1E003E30D
:10572000C001E78000FF00007E00003C00003C005C
:10573000003C00003C00003C00003C00003C00003D
:105740000000000000000000000000000000000059
:105750000000000000000000000000000000000049
:105760000000000000000000000000001FFFFC1F00
:10577000FFFC0000F80001E00003C0000780000FFC
:1057800000001E00003C0000780000F00003E00074
:1057900007C0000F80001F00003FFFFC3FFFFC0020
:1057A00000000000000000000000000000000000F9
:1057B00000000000000000000000000000000000E9
:1057C00000000000000001FFC001FFC001E0000177
:1057D000E00001E00001E00001E00001E00001E084
:1057E0000001E00001E00001E00001E00001E00054
:1057F00001E00001E00001E00001E00001E0000143
:10580000E00001E00001E00001E00001FFC0000055
:105810000000000000000000000000000000000088
:105820000000000000000E00000F00000700000351
:10583000800003C00001E00000E00000F0000078FC
:1058400000003800003C00001E00000E00000F00A9
:105850000007800003800001C00001E00000E000BC
:10586000007000007800003C000000000000000014
:105870000000000000000000000000000000000028
:1058800000000000000003FF8003FF80000780008D
:10589000078000078000078000078000078000075E
:1058A00080000780000780000780000780000780D5
:1058B0000007800007800007800007800007800045
:1058C000078000078000078000078003FF8000003A
:1058D00000000000000000000000000000000000C8
:1058E000000000000000000000000000003C00007C
:1058F0007E0000E70001C3800381C00700E00E00C6
:10590000F01E007800000000000000000000000011
:105910000000000000000000000000000000000087
:105920000000000000000000000000000000000077
:105930000000000000000000000000000000000067
:105940000000000000000000000000000000000057
:105950000000000000000000000000000000000047
:105960000000000000000000000000000000000037
:105970000000000000000000000000000000000027
:105980000000000000000000FFFFFFFFFFFF00001D
:105990000000000000000000000000000000000007
:1059A0000000000000000F800003E00000F800008D
:1059B0003C000000000000000000000000000000AB
:1059C00000000000000000000000000000000000D7
:1059D00000000000000000000000000000000000C7
:1059E00000000000000000000000000000000000B7
:1059F00000000000000000000000000000000000A7
:105A00000000000000000000000000000000000096
:105A1000000000000000000007FFC007E7F00000E2
:105A2000F000007800007800FFF807FFF80F00781A
:105A30001E00781E00781E03F80FFFF807FC7800A0
:105A40000000000000000000000000000000000056
:105A50000000000000000000000000000000000046
:105A60000000000000001E00001E00001E00001EBE
:105A700000001E00001E00001E7FE01EFFF01FC081
:105A8000781F00781E003C1E003C1E003C1E003C9F
:105A90001E00381E00781E00F01FFFE007FF000008
:105AA00000000000000000000000000000000000F6
:105AB00000000000000000000000000000000000E6
:105AC00000000000000000000000000000000000D6
:105AD000000000000000000000FFF003FFF007C01E
